{
  "_format": "hh-sol-artifact-1",
  "contractName": "SmartBet",
  "sourceName": "contracts/SmartBet.sol",
  "abi": [
    {
      "inputs": [],
      "stateMutability": "nonpayable",
      "type": "constructor"
    },
    {
      "anonymous": false,
      "inputs": [
        {
          "indexed": false,
          "internalType": "address",
          "name": "user",
          "type": "address"
        },
        {
          "indexed": false,
          "internalType": "uint256",
          "name": "matchId",
          "type": "uint256"
        },
        {
          "indexed": false,
          "internalType": "uint256",
          "name": "predictedScoreTeam1",
          "type": "uint256"
        },
        {
          "indexed": false,
          "internalType": "uint256",
          "name": "predictedScoreTeam2",
          "type": "uint256"
        },
        {
          "indexed": false,
          "internalType": "uint256",
          "name": "amount",
          "type": "uint256"
        }
      ],
      "name": "BetPlaced",
      "type": "event"
    },
    {
      "anonymous": false,
      "inputs": [
        {
          "indexed": false,
          "internalType": "uint256",
          "name": "matchId",
          "type": "uint256"
        },
        {
          "indexed": false,
          "internalType": "string",
          "name": "team1",
          "type": "string"
        },
        {
          "indexed": false,
          "internalType": "string",
          "name": "team2",
          "type": "string"
        },
        {
          "indexed": false,
          "internalType": "uint256",
          "name": "date",
          "type": "uint256"
        }
      ],
      "name": "MatchAdded",
      "type": "event"
    },
    {
      "anonymous": false,
      "inputs": [
        {
          "indexed": false,
          "internalType": "uint256",
          "name": "matchId",
          "type": "uint256"
        },
        {
          "indexed": false,
          "internalType": "uint256",
          "name": "scoreTeam1",
          "type": "uint256"
        },
        {
          "indexed": false,
          "internalType": "uint256",
          "name": "scoreTeam2",
          "type": "uint256"
        }
      ],
      "name": "MatchFinished",
      "type": "event"
    },
    {
      "anonymous": false,
      "inputs": [
        {
          "indexed": false,
          "internalType": "address",
          "name": "userAddr",
          "type": "address"
        }
      ],
      "name": "UserRegistered",
      "type": "event"
    },
    {
      "anonymous": false,
      "inputs": [
        {
          "indexed": false,
          "internalType": "address",
          "name": "user",
          "type": "address"
        },
        {
          "indexed": false,
          "internalType": "uint256",
          "name": "amount",
          "type": "uint256"
        }
      ],
      "name": "WinningsWithdrawn",
      "type": "event"
    },
    {
      "inputs": [
        {
          "internalType": "string",
          "name": "team1",
          "type": "string"
        },
        {
          "internalType": "string",
          "name": "team2",
          "type": "string"
        },
        {
          "internalType": "uint256",
          "name": "date",
          "type": "uint256"
        }
      ],
      "name": "addMatch",
      "outputs": [],
      "stateMutability": "nonpayable",
      "type": "function"
    },
    {
      "inputs": [
        {
          "internalType": "address",
          "name": "userAddress",
          "type": "address"
        }
      ],
      "name": "addUser",
      "outputs": [],
      "stateMutability": "nonpayable",
      "type": "function"
    },
    {
      "inputs": [
        {
          "internalType": "address",
          "name": "userAddress",
          "type": "address"
        }
      ],
      "name": "banUser",
      "outputs": [],
      "stateMutability": "nonpayable",
      "type": "function"
    },
    {
      "inputs": [
        {
          "internalType": "uint256",
          "name": "",
          "type": "uint256"
        }
      ],
      "name": "bets",
      "outputs": [
        {
          "internalType": "address",
          "name": "user",
          "type": "address"
        },
        {
          "internalType": "uint256",
          "name": "matchId",
          "type": "uint256"
        },
        {
          "internalType": "uint256",
          "name": "predictedScoreTeam1",
          "type": "uint256"
        },
        {
          "internalType": "uint256",
          "name": "predictedScoreTeam2",
          "type": "uint256"
        },
        {
          "internalType": "uint256",
          "name": "amount",
          "type": "uint256"
        }
      ],
      "stateMutability": "view",
      "type": "function"
    },
    {
      "inputs": [],
      "name": "entryFee",
      "outputs": [
        {
          "internalType": "uint256",
          "name": "",
          "type": "uint256"
        }
      ],
      "stateMutability": "view",
      "type": "function"
    },
    {
      "inputs": [
        {
          "internalType": "uint256",
          "name": "matchId",
          "type": "uint256"
        },
        {
          "internalType": "uint256",
          "name": "scoreTeam1",
          "type": "uint256"
        },
        {
          "internalType": "uint256",
          "name": "scoreTeam2",
          "type": "uint256"
        }
      ],
      "name": "finishMatch",
      "outputs": [],
      "stateMutability": "nonpayable",
      "type": "function"
    },
    {
      "inputs": [
        {
          "internalType": "uint256",
          "name": "",
          "type": "uint256"
        }
      ],
      "name": "matches",
      "outputs": [
        {
          "internalType": "uint256",
          "name": "id",
          "type": "uint256"
        },
        {
          "internalType": "string",
          "name": "team1",
          "type": "string"
        },
        {
          "internalType": "string",
          "name": "team2",
          "type": "string"
        },
        {
          "internalType": "uint256",
          "name": "date",
          "type": "uint256"
        },
        {
          "internalType": "uint256",
          "name": "scoreTeam1",
          "type": "uint256"
        },
        {
          "internalType": "uint256",
          "name": "scoreTeam2",
          "type": "uint256"
        },
        {
          "internalType": "bool",
          "name": "finished",
          "type": "bool"
        }
      ],
      "stateMutability": "view",
      "type": "function"
    },
    {
      "inputs": [],
      "name": "owner",
      "outputs": [
        {
          "internalType": "address",
          "name": "",
          "type": "address"
        }
      ],
      "stateMutability": "view",
      "type": "function"
    },
    {
      "inputs": [
        {
          "internalType": "uint256",
          "name": "matchId",
          "type": "uint256"
        },
        {
          "internalType": "uint256",
          "name": "predictedScoreTeam1",
          "type": "uint256"
        },
        {
          "internalType": "uint256",
          "name": "predictedScoreTeam2",
          "type": "uint256"
        }
      ],
      "name": "placeBet",
      "outputs": [],
      "stateMutability": "payable",
      "type": "function"
    },
    {
      "inputs": [],
      "name": "registerUser",
      "outputs": [],
      "stateMutability": "nonpayable",
      "type": "function"
    },
    {
      "inputs": [
        {
          "internalType": "address",
          "name": "userAddress",
          "type": "address"
        }
      ],
      "name": "removeUser",
      "outputs": [],
      "stateMutability": "nonpayable",
      "type": "function"
    },
    {
      "inputs": [
        {
          "internalType": "address",
          "name": "userAddress",
          "type": "address"
        },
        {
          "internalType": "uint256",
          "name": "newBalance",
          "type": "uint256"
        }
      ],
      "name": "updateUserBalance",
      "outputs": [],
      "stateMutability": "nonpayable",
      "type": "function"
    },
    {
      "inputs": [
        {
          "internalType": "address",
          "name": "",
          "type": "address"
        }
      ],
      "name": "users",
      "outputs": [
        {
          "internalType": "address",
          "name": "addr",
          "type": "address"
        },
        {
          "internalType": "uint256",
          "name": "balance",
          "type": "uint256"
        },
        {
          "internalType": "bool",
          "name": "isBanned",
          "type": "bool"
        }
      ],
      "stateMutability": "view",
      "type": "function"
    },
    {
      "inputs": [
        {
          "internalType": "address",
          "name": "",
          "type": "address"
        }
      ],
      "name": "winnings",
      "outputs": [
        {
          "internalType": "uint256",
          "name": "",
          "type": "uint256"
        }
      ],
      "stateMutability": "view",
      "type": "function"
    },
    {
      "inputs": [],
      "name": "withdrawWinnings",
      "outputs": [],
      "stateMutability": "nonpayable",
      "type": "function"
    }
  ],
  "bytecode": "0x6080604052662386f26fc1000060015534801561001b57600080fd5b50336000806101000a81548173ffffffffffffffffffffffffffffffffffffffff021916908373ffffffffffffffffffffffffffffffffffffffff16021790555061283f8061006b6000396000f3fe6080604052600436106100e85760003560e01c80635eba6e471161008a578063cc42e83a11610059578063cc42e83a146102ea578063e71c969714610301578063ea3a14991461031d578063fad54f3a1461035a576100e8565b80635eba6e471461022e5780638da5cb5b146102575780639857518814610282578063a87430ba146102ab576100e8565b806322af00fa116100c657806322af00fa1461016a578063421b2d8b146101ab5780634768d4ef146101d45780634d3820eb14610217576100e8565b8063072ea61c146100ed5780630fbf1ed51461011857806310d86b1f14610141575b600080fd5b3480156100f957600080fd5b50610102610383565b60405161010f91906118dc565b60405180910390f35b34801561012457600080fd5b5061013f600480360381019061013a9190611937565b610389565b005b34801561014d57600080fd5b50610168600480360381019061016391906119e8565b6104f4565b005b34801561017657600080fd5b50610191600480360381019061018c9190611a15565b610741565b6040516101a2959493929190611a51565b60405180910390f35b3480156101b757600080fd5b506101d260048036038101906101cd91906119e8565b6107a7565b005b3480156101e057600080fd5b506101fb60048036038101906101f69190611a15565b610a28565b60405161020e9796959493929190611b4f565b60405180910390f35b34801561022357600080fd5b5061022c610b97565b005b34801561023a57600080fd5b5061025560048036038101906102509190611bcc565b610d89565b005b34801561026357600080fd5b5061026c610f33565b6040516102799190611c0c565b60405180910390f35b34801561028e57600080fd5b506102a960048036038101906102a491906119e8565b610f57565b005b3480156102b757600080fd5b506102d260048036038101906102cd91906119e8565b61113e565b6040516102e193929190611c27565b60405180910390f35b3480156102f657600080fd5b506102ff611195565b005b61031b60048036038101906103169190611937565b6113da565b005b34801561032957600080fd5b50610344600480360381019061033f91906119e8565b6116ec565b60405161035191906118dc565b60405180910390f35b34801561036657600080fd5b50610381600480360381019061037c9190611d93565b611704565b005b60015481565b60008054906101000a900473ffffffffffffffffffffffffffffffffffffffff1673ffffffffffffffffffffffffffffffffffffffff163373ffffffffffffffffffffffffffffffffffffffff1614610417576040517f08c379a000000000000000000000000000000000000000000000000000000000815260040161040e90611e90565b60405180910390fd5b600380549050831061045e576040517f08c379a000000000000000000000000000000000000000000000000000000000815260040161045590611efc565b60405180910390fd5b60006003848154811061047457610473611f1c565b5b9060005260206000209060070201905082816004018190555081816005018190555060018160060160006101000a81548160ff0219169083151502179055507f8e36a42896ac2a1d0c0b5ca5aff8b1f91ab25de19c492d83a3dac09ba97643718484846040516104e693929190611f4b565b60405180910390a150505050565b60008054906101000a900473ffffffffffffffffffffffffffffffffffffffff1673ffffffffffffffffffffffffffffffffffffffff163373ffffffffffffffffffffffffffffffffffffffff1614610582576040517f08c379a000000000000000000000000000000000000000000000000000000000815260040161057990611e90565b60405180910390fd5b600073ffffffffffffffffffffffffffffffffffffffff16600260008373ffffffffffffffffffffffffffffffffffffffff1673ffffffffffffffffffffffffffffffffffffffff16815260200190815260200160002060000160009054906101000a900473ffffffffffffffffffffffffffffffffffffffff1673ffffffffffffffffffffffffffffffffffffffff1603610653576040517f08c379a000000000000000000000000000000000000000000000000000000000815260040161064a90611fce565b60405180910390fd5b600260008273ffffffffffffffffffffffffffffffffffffffff1673ffffffffffffffffffffffffffffffffffffffff16815260200190815260200160002060020160009054906101000a900460ff16156106e3576040517f08c379a00000000000000000000000000000000000000000000000000000000081526004016106da9061203a565b60405180910390fd5b6001600260008373ffffffffffffffffffffffffffffffffffffffff1673ffffffffffffffffffffffffffffffffffffffff16815260200190815260200160002060020160006101000a81548160ff02191690831515021790555050565b6004818154811061075157600080fd5b90600052602060002090600502016000915090508060000160009054906101000a900473ffffffffffffffffffffffffffffffffffffffff16908060010154908060020154908060030154908060040154905085565b60008054906101000a900473ffffffffffffffffffffffffffffffffffffffff1673ffffffffffffffffffffffffffffffffffffffff163373ffffffffffffffffffffffffffffffffffffffff1614610835576040517f08c379a000000000000000000000000000000000000000000000000000000000815260040161082c90611e90565b60405180910390fd5b600073ffffffffffffffffffffffffffffffffffffffff16600260008373ffffffffffffffffffffffffffffffffffffffff1673ffffffffffffffffffffffffffffffffffffffff16815260200190815260200160002060000160009054906101000a900473ffffffffffffffffffffffffffffffffffffffff1673ffffffffffffffffffffffffffffffffffffffff1614610906576040517f08c379a00000000000000000000000000000000000000000000000000000000081526004016108fd906120a6565b60405180910390fd5b60405180606001604052808273ffffffffffffffffffffffffffffffffffffffff1681526020016000815260200160001515815250600260008373ffffffffffffffffffffffffffffffffffffffff1673ffffffffffffffffffffffffffffffffffffffff16815260200190815260200160002060008201518160000160006101000a81548173ffffffffffffffffffffffffffffffffffffffff021916908373ffffffffffffffffffffffffffffffffffffffff1602179055506020820151816001015560408201518160020160006101000a81548160ff0219169083151502179055509050507f54db7a5cb4735e1aac1f53db512d3390390bb6637bd30ad4bf9fc98667d9b9b981604051610a1d9190611c0c565b60405180910390a150565b60038181548110610a3857600080fd5b9060005260206000209060070201600091509050806000015490806001018054610a61906120f5565b80601f0160208091040260200160405190810160405280929190818152602001828054610a8d906120f5565b8015610ada5780601f10610aaf57610100808354040283529160200191610ada565b820191906000526020600020905b815481529060010190602001808311610abd57829003601f168201915b505050505090806002018054610aef906120f5565b80601f0160208091040260200160405190810160405280929190818152602001828054610b1b906120f5565b8015610b685780601f10610b3d57610100808354040283529160200191610b68565b820191906000526020600020905b815481529060010190602001808311610b4b57829003601f168201915b5050505050908060030154908060040154908060050154908060060160009054906101000a900460ff16905087565b600073ffffffffffffffffffffffffffffffffffffffff16600260003373ffffffffffffffffffffffffffffffffffffffff1673ffffffffffffffffffffffffffffffffffffffff16815260200190815260200160002060000160009054906101000a900473ffffffffffffffffffffffffffffffffffffffff1673ffffffffffffffffffffffffffffffffffffffff1614610c68576040517f08c379a0000000000000000000000000000000000000000000000000000000008152600401610c5f90612172565b60405180910390fd5b60405180606001604052803373ffffffffffffffffffffffffffffffffffffffff1681526020016000815260200160001515815250600260003373ffffffffffffffffffffffffffffffffffffffff1673ffffffffffffffffffffffffffffffffffffffff16815260200190815260200160002060008201518160000160006101000a81548173ffffffffffffffffffffffffffffffffffffffff021916908373ffffffffffffffffffffffffffffffffffffffff1602179055506020820151816001015560408201518160020160006101000a81548160ff0219169083151502179055509050507f54db7a5cb4735e1aac1f53db512d3390390bb6637bd30ad4bf9fc98667d9b9b933604051610d7f9190611c0c565b60405180910390a1565b60008054906101000a900473ffffffffffffffffffffffffffffffffffffffff1673ffffffffffffffffffffffffffffffffffffffff163373ffffffffffffffffffffffffffffffffffffffff1614610e17576040517f08c379a0000000000000000000000000000000000000000000000000000000008152600401610e0e90611e90565b60405180910390fd5b600073ffffffffffffffffffffffffffffffffffffffff16600260008473ffffffffffffffffffffffffffffffffffffffff1673ffffffffffffffffffffffffffffffffffffffff16815260200190815260200160002060000160009054906101000a900473ffffffffffffffffffffffffffffffffffffffff1673ffffffffffffffffffffffffffffffffffffffff1603610ee8576040517f08c379a0000000000000000000000000000000000000000000000000000000008152600401610edf90611fce565b60405180910390fd5b80600260008473ffffffffffffffffffffffffffffffffffffffff1673ffffffffffffffffffffffffffffffffffffffff168152602001908152602001600020600101819055505050565b60008054906101000a900473ffffffffffffffffffffffffffffffffffffffff1681565b60008054906101000a900473ffffffffffffffffffffffffffffffffffffffff1673ffffffffffffffffffffffffffffffffffffffff163373ffffffffffffffffffffffffffffffffffffffff1614610fe5576040517f08c379a0000000000000000000000000000000000000000000000000000000008152600401610fdc90611e90565b60405180910390fd5b600073ffffffffffffffffffffffffffffffffffffffff16600260008373ffffffffffffffffffffffffffffffffffffffff1673ffffffffffffffffffffffffffffffffffffffff16815260200190815260200160002060000160009054906101000a900473ffffffffffffffffffffffffffffffffffffffff1673ffffffffffffffffffffffffffffffffffffffff16036110b6576040517f08c379a00000000000000000000000000000000000000000000000000000000081526004016110ad90611fce565b60405180910390fd5b600260008273ffffffffffffffffffffffffffffffffffffffff1673ffffffffffffffffffffffffffffffffffffffff168152602001908152602001600020600080820160006101000a81549073ffffffffffffffffffffffffffffffffffffffff021916905560018201600090556002820160006101000a81549060ff0219169055505050565b60026020528060005260406000206000915090508060000160009054906101000a900473ffffffffffffffffffffffffffffffffffffffff16908060010154908060020160009054906101000a900460ff16905083565b600260003373ffffffffffffffffffffffffffffffffffffffff1673ffffffffffffffffffffffffffffffffffffffff16815260200190815260200160002060020160009054906101000a900460ff1615611225576040517f08c379a000000000000000000000000000000000000000000000000000000000815260040161121c906121de565b60405180910390fd5b6000600560003373ffffffffffffffffffffffffffffffffffffffff1673ffffffffffffffffffffffffffffffffffffffff168152602001908152602001600020549050600081116112ac576040517f08c379a00000000000000000000000000000000000000000000000000000000081526004016112a39061224a565b60405180910390fd5b6000600560003373ffffffffffffffffffffffffffffffffffffffff1673ffffffffffffffffffffffffffffffffffffffff1681526020019081526020016000208190555060003373ffffffffffffffffffffffffffffffffffffffff16826040516113179061229b565b60006040518083038185875af1925050503d8060008114611354576040519150601f19603f3d011682016040523d82523d6000602084013e611359565b606091505b505090508061139d576040517f08c379a0000000000000000000000000000000000000000000000000000000008152600401611394906122fc565b60405180910390fd5b7f24215bbaf0832fa4d6ffef16dee3971d8b714921fef3ad63f793d578983c6dc233836040516113ce92919061231c565b60405180910390a15050565b600260003373ffffffffffffffffffffffffffffffffffffffff1673ffffffffffffffffffffffffffffffffffffffff16815260200190815260200160002060020160009054906101000a900460ff161561146a576040517f08c379a0000000000000000000000000000000000000000000000000000000008152600401611461906121de565b60405180910390fd5b60015434146114ae576040517f08c379a00000000000000000000000000000000000000000000000000000000081526004016114a5906123b7565b60405180910390fd5b60038054905083106114f5576040517f08c379a00000000000000000000000000000000000000000000000000000000081526004016114ec90611efc565b60405180910390fd5b6003838154811061150957611508611f1c565b5b906000526020600020906007020160060160009054906101000a900460ff1615611568576040517f08c379a000000000000000000000000000000000000000000000000000000000815260040161155f90612423565b60405180910390fd5b6003838154811061157c5761157b611f1c565b5b90600052602060002090600702016003015442106115cf576040517f08c379a00000000000000000000000000000000000000000000000000000000081526004016115c6906124b5565b60405180910390fd5b60046040518060a001604052803373ffffffffffffffffffffffffffffffffffffffff16815260200185815260200184815260200183815260200134815250908060018154018082558091505060019003906000526020600020906005020160009091909190915060008201518160000160006101000a81548173ffffffffffffffffffffffffffffffffffffffff021916908373ffffffffffffffffffffffffffffffffffffffff1602179055506020820151816001015560408201518160020155606082015181600301556080820151816004015550507f935a8686694e2b5cc90f63054b327255f6fb92db3acd6d98c5a707d4987e93e133848484346040516116df959493929190611a51565b60405180910390a1505050565b60056020528060005260406000206000915090505481565b60008054906101000a900473ffffffffffffffffffffffffffffffffffffffff1673ffffffffffffffffffffffffffffffffffffffff163373ffffffffffffffffffffffffffffffffffffffff1614611792576040517f08c379a000000000000000000000000000000000000000000000000000000000815260040161178990611e90565b60405180910390fd5b60036040518060e00160405280600380549050815260200185815260200184815260200183815260200160008152602001600081526020016000151581525090806001815401808255809150506001900390600052602060002090600702016000909190919091506000820151816000015560208201518160010190816118199190612681565b50604082015181600201908161182f9190612681565b50606082015181600301556080820151816004015560a0820151816005015560c08201518160060160006101000a81548160ff02191690831515021790555050507f0b237327602ff20cb32b90e23baaa12760e076448a9e5b570d2253438daaf90060016003805490506118a39190612782565b8484846040516118b694939291906127b6565b60405180910390a1505050565b6000819050919050565b6118d6816118c3565b82525050565b60006020820190506118f160008301846118cd565b92915050565b6000604051905090565b600080fd5b600080fd5b611914816118c3565b811461191f57600080fd5b50565b6000813590506119318161190b565b92915050565b6000806000606084860312156119505761194f611901565b5b600061195e86828701611922565b935050602061196f86828701611922565b925050604061198086828701611922565b9150509250925092565b600073ffffffffffffffffffffffffffffffffffffffff82169050919050565b60006119b58261198a565b9050919050565b6119c5816119aa565b81146119d057600080fd5b50565b6000813590506119e2816119bc565b92915050565b6000602082840312156119fe576119fd611901565b5b6000611a0c848285016119d3565b91505092915050565b600060208284031215611a2b57611a2a611901565b5b6000611a3984828501611922565b91505092915050565b611a4b816119aa565b82525050565b600060a082019050611a666000830188611a42565b611a7360208301876118cd565b611a8060408301866118cd565b611a8d60608301856118cd565b611a9a60808301846118cd565b9695505050505050565b600081519050919050565b600082825260208201905092915050565b60005b83811015611ade578082015181840152602081019050611ac3565b60008484015250505050565b6000601f19601f8301169050919050565b6000611b0682611aa4565b611b108185611aaf565b9350611b20818560208601611ac0565b611b2981611aea565b840191505092915050565b60008115159050919050565b611b4981611b34565b82525050565b600060e082019050611b64600083018a6118cd565b8181036020830152611b768189611afb565b90508181036040830152611b8a8188611afb565b9050611b9960608301876118cd565b611ba660808301866118cd565b611bb360a08301856118cd565b611bc060c0830184611b40565b98975050505050505050565b60008060408385031215611be357611be2611901565b5b6000611bf1858286016119d3565b9250506020611c0285828601611922565b9150509250929050565b6000602082019050611c216000830184611a42565b92915050565b6000606082019050611c3c6000830186611a42565b611c4960208301856118cd565b611c566040830184611b40565b949350505050565b600080fd5b600080fd5b7f4e487b7100000000000000000000000000000000000000000000000000000000600052604160045260246000fd5b611ca082611aea565b810181811067ffffffffffffffff82111715611cbf57611cbe611c68565b5b80604052505050565b6000611cd26118f7565b9050611cde8282611c97565b919050565b600067ffffffffffffffff821115611cfe57611cfd611c68565b5b611d0782611aea565b9050602081019050919050565b82818337600083830152505050565b6000611d36611d3184611ce3565b611cc8565b905082815260208101848484011115611d5257611d51611c63565b5b611d5d848285611d14565b509392505050565b600082601f830112611d7a57611d79611c5e565b5b8135611d8a848260208601611d23565b91505092915050565b600080600060608486031215611dac57611dab611901565b5b600084013567ffffffffffffffff811115611dca57611dc9611906565b5b611dd686828701611d65565b935050602084013567ffffffffffffffff811115611df757611df6611906565b5b611e0386828701611d65565b9250506040611e1486828701611922565b9150509250925092565b7f5365756c206c2761646d696e697374726174657572207065757420656666656360008201527f7475657220636574746520616374696f6e2e0000000000000000000000000000602082015250565b6000611e7a603283611aaf565b9150611e8582611e1e565b604082019050919050565b60006020820190508181036000830152611ea981611e6d565b9050919050565b7f4d6174636820696e76616c6964652e0000000000000000000000000000000000600082015250565b6000611ee6600f83611aaf565b9150611ef182611eb0565b602082019050919050565b60006020820190508181036000830152611f1581611ed9565b9050919050565b7f4e487b7100000000000000000000000000000000000000000000000000000000600052603260045260246000fd5b6000606082019050611f6060008301866118cd565b611f6d60208301856118cd565b611f7a60408301846118cd565b949350505050565b7f4c277574696c69736174657572206e27657869737465207061732e0000000000600082015250565b6000611fb8601b83611aaf565b9150611fc382611f82565b602082019050919050565b60006020820190508181036000830152611fe781611fab565b9050919050565b7f416c72656164792062616e6e65642062616e6e692e0000000000000000000000600082015250565b6000612024601583611aaf565b915061202f82611fee565b602082019050919050565b6000602082019050818103600083015261205381612017565b9050919050565b7f5573657220616c72656164792065786973740000000000000000000000000000600082015250565b6000612090601283611aaf565b915061209b8261205a565b602082019050919050565b600060208201905081810360008301526120bf81612083565b9050919050565b7f4e487b7100000000000000000000000000000000000000000000000000000000600052602260045260246000fd5b6000600282049050600182168061210d57607f821691505b6020821081036121205761211f6120c6565b5b50919050565b7f416c726561647920726567697374657265642e00000000000000000000000000600082015250565b600061215c601383611aaf565b915061216782612126565b602082019050919050565b6000602082019050818103600083015261218b8161214f565b9050919050565b7f4c277574696c69736174657572206573742062616e6e692e0000000000000000600082015250565b60006121c8601883611aaf565b91506121d382612192565b602082019050919050565b600060208201905081810360008301526121f7816121bb565b9050919050565b7f506173206465206761696e730000000000000000000000000000000000000000600082015250565b6000612234600c83611aaf565b915061223f826121fe565b602082019050919050565b6000602082019050818103600083015261226381612227565b9050919050565b600081905092915050565b50565b600061228560008361226a565b915061229082612275565b600082019050919050565b60006122a682612278565b9150819050919050565b7f4563686563206475207472616e73666572740000000000000000000000000000600082015250565b60006122e6601283611aaf565b91506122f1826122b0565b602082019050919050565b60006020820190508181036000830152612315816122d9565b9050919050565b60006040820190506123316000830185611a42565b61233e60208301846118cd565b9392505050565b7f4c65206d6f6e74616e742064656e747265652065737420696e636f727265637460008201527f2e00000000000000000000000000000000000000000000000000000000000000602082015250565b60006123a1602183611aaf565b91506123ac82612345565b604082019050919050565b600060208201905081810360008301526123d081612394565b9050919050565b7f4c65206d61746368206573742064656a61207465726d696e652e000000000000600082015250565b600061240d601a83611aaf565b9150612418826123d7565b602082019050919050565b6000602082019050818103600083015261243c81612400565b9050919050565b7f4c652070617269206e2065737420706c7573206175746f72697365206170726560008201527f73206c65206465627574206475206d617463682e000000000000000000000000602082015250565b600061249f603483611aaf565b91506124aa82612443565b604082019050919050565b600060208201905081810360008301526124ce81612492565b9050919050565b60008190508160005260206000209050919050565b60006020601f8301049050919050565b600082821b905092915050565b6000600883026125377fffffffffffffffffffffffffffffffffffffffffffffffffffffffffffffffff826124fa565b61254186836124fa565b95508019841693508086168417925050509392505050565b6000819050919050565b600061257e612579612574846118c3565b612559565b6118c3565b9050919050565b6000819050919050565b61259883612563565b6125ac6125a482612585565b848454612507565b825550505050565b600090565b6125c16125b4565b6125cc81848461258f565b505050565b5b818110156125f0576125e56000826125b9565b6001810190506125d2565b5050565b601f82111561263557612606816124d5565b61260f846124ea565b8101602085101561261e578190505b61263261262a856124ea565b8301826125d1565b50505b505050565b600082821c905092915050565b60006126586000198460080261263a565b1980831691505092915050565b60006126718383612647565b9150826002028217905092915050565b61268a82611aa4565b67ffffffffffffffff8111156126a3576126a2611c68565b5b6126ad82546120f5565b6126b88282856125f4565b600060209050601f8311600181146126eb57600084156126d9578287015190505b6126e38582612665565b86555061274b565b601f1984166126f9866124d5565b60005b82811015612721578489015182556001820191506020850194506020810190506126fc565b8683101561273e578489015161273a601f891682612647565b8355505b6001600288020188555050505b505050505050565b7f4e487b7100000000000000000000000000000000000000000000000000000000600052601160045260246000fd5b600061278d826118c3565b9150612798836118c3565b92508282039050818111156127b0576127af612753565b5b92915050565b60006080820190506127cb60008301876118cd565b81810360208301526127dd8186611afb565b905081810360408301526127f18185611afb565b905061280060608301846118cd565b9594505050505056fea2646970667358221220c2e30f196bb9671537514fa478eef82b1226ce98dfc53a23d17df9d0e923ff6b64736f6c63430008120033",
  "linkReferences": {},
  "deployedLinkReferences": {}
}